{
  "contractName": "Asset",
  "abi": [
    {
      "constant": true,
      "inputs": [
        {
          "internalType": "uint256",
          "name": "",
          "type": "uint256"
        },
        {
          "internalType": "uint256",
          "name": "",
          "type": "uint256"
        }
      ],
      "name": "owners",
      "outputs": [
        {
          "internalType": "uint256",
          "name": "",
          "type": "uint256"
        }
      ],
      "payable": false,
      "stateMutability": "view",
      "type": "function"
    },
    {
      "constant": false,
      "inputs": [
        {
          "internalType": "string",
          "name": "_name",
          "type": "string"
        },
        {
          "internalType": "address",
          "name": "_addr",
          "type": "address"
        },
        {
          "internalType": "string",
          "name": "_otherDetails",
          "type": "string"
        },
        {
          "internalType": "uint16",
          "name": "_yearOfManufacture",
          "type": "uint16"
        }
      ],
      "name": "createAsset",
      "outputs": [
        {
          "internalType": "uint256",
          "name": "",
          "type": "uint256"
        }
      ],
      "payable": false,
      "stateMutability": "nonpayable",
      "type": "function"
    },
    {
      "constant": false,
      "inputs": [
        {
          "internalType": "string",
          "name": "_newname",
          "type": "string"
        },
        {
          "internalType": "address",
          "name": "_newaddr",
          "type": "address"
        },
        {
          "internalType": "uint256",
          "name": "_assetNo",
          "type": "uint256"
        }
      ],
      "name": "transferAsset",
      "outputs": [
        {
          "internalType": "bool",
          "name": "success",
          "type": "bool"
        }
      ],
      "payable": false,
      "stateMutability": "nonpayable",
      "type": "function"
    },
    {
      "constant": true,
      "inputs": [
        {
          "internalType": "uint256",
          "name": "_assetNo",
          "type": "uint256"
        }
      ],
      "name": "viewTrail",
      "outputs": [
        {
          "internalType": "address[]",
          "name": "",
          "type": "address[]"
        }
      ],
      "payable": false,
      "stateMutability": "view",
      "type": "function"
    },
    {
      "constant": true,
      "inputs": [
        {
          "internalType": "uint256",
          "name": "_assetNo",
          "type": "uint256"
        }
      ],
      "name": "getAssetOwnerName",
      "outputs": [
        {
          "internalType": "string",
          "name": "",
          "type": "string"
        }
      ],
      "payable": false,
      "stateMutability": "view",
      "type": "function"
    },
    {
      "constant": false,
      "inputs": [
        {
          "internalType": "uint256",
          "name": "_assetNo",
          "type": "uint256"
        },
        {
          "internalType": "address",
          "name": "_to",
          "type": "address"
        },
        {
          "internalType": "uint256",
          "name": "_timeinseconds",
          "type": "uint256"
        }
      ],
      "name": "giveViewAccess",
      "outputs": [],
      "payable": false,
      "stateMutability": "nonpayable",
      "type": "function"
    },
    {
      "constant": true,
      "inputs": [
        {
          "internalType": "uint256",
          "name": "_assetNo",
          "type": "uint256"
        }
      ],
      "name": "viewAssetDetail",
      "outputs": [
        {
          "internalType": "string",
          "name": "",
          "type": "string"
        }
      ],
      "payable": false,
      "stateMutability": "view",
      "type": "function"
    },
    {
      "constant": false,
      "inputs": [
        {
          "internalType": "uint256",
          "name": "_assetNo",
          "type": "uint256"
        },
        {
          "internalType": "address",
          "name": "_to",
          "type": "address"
        }
      ],
      "name": "delegateOwner",
      "outputs": [
        {
          "internalType": "address",
          "name": "",
          "type": "address"
        }
      ],
      "payable": false,
      "stateMutability": "nonpayable",
      "type": "function"
    }
  ],
  "bytecode": "0x608060405260006003556001600460006101000a81548160ff021916908360ff16021790555034801561003157600080fd5b50611766806100416000396000f3fe608060405234801561001057600080fd5b50600436106100885760003560e01c8063870ec2301161005b578063870ec230146102915780639122b35c1461038e578063c134feb614610522578063d84e22821461057a57610088565b80632a3ceb3f1461008d57806333764f5314610134578063543ec9281461018057806365bed7ba1461020e575b600080fd5b6100b9600480360360208110156100a357600080fd5b8101908080359060200190929190505050610621565b6040518080602001828103825283818151815260200191508051906020019080838360005b838110156100f95780820151818401526020810190506100de565b50505050905090810190601f1680156101265780820380516001836020036101000a031916815260200191505b509250505060405180910390f35b61016a6004803603604081101561014a57600080fd5b8101908080359060200190929190803590602001909291905050506107af565b6040518082815260200191505060405180910390f35b6101cc6004803603604081101561019657600080fd5b8101908080359060200190929190803573ffffffffffffffffffffffffffffffffffffffff1690602001909291905050506107e6565b604051808273ffffffffffffffffffffffffffffffffffffffff1673ffffffffffffffffffffffffffffffffffffffff16815260200191505060405180910390f35b61023a6004803603602081101561022457600080fd5b8101908080359060200190929190505050610880565b6040518080602001828103825283818151815260200191508051906020019060200280838360005b8381101561027d578082015181840152602081019050610262565b505050509050019250505060405180910390f35b610374600480360360608110156102a757600080fd5b81019080803590602001906401000000008111156102c457600080fd5b8201836020820111156102d657600080fd5b803590602001918460018302840111640100000000831117156102f857600080fd5b91908080601f016020809104026020016040519081016040528093929190818152602001838380828437600081840152601f19601f820116905080830192505050505050509192919290803573ffffffffffffffffffffffffffffffffffffffff169060200190929190803590602001909291905050506109b2565b604051808215151515815260200191505060405180910390f35b61050c600480360360808110156103a457600080fd5b81019080803590602001906401000000008111156103c157600080fd5b8201836020820111156103d357600080fd5b803590602001918460018302840111640100000000831117156103f557600080fd5b91908080601f016020809104026020016040519081016040528093929190818152602001838380828437600081840152601f19601f820116905080830192505050505050509192919290803573ffffffffffffffffffffffffffffffffffffffff1690602001909291908035906020019064010000000081111561047857600080fd5b82018360208201111561048a57600080fd5b803590602001918460018302840111640100000000831117156104ac57600080fd5b91908080601f016020809104026020016040519081016040528093929190818152602001838380828437600081840152601f19601f820116905080830192505050505050509192919290803561ffff169060200190929190505050610eca565b6040518082815260200191505060405180910390f35b6105786004803603606081101561053857600080fd5b8101908080359060200190929190803573ffffffffffffffffffffffffffffffffffffffff1690602001909291908035906020019092919050505061128b565b005b6105a66004803603602081101561059057600080fd5b81019080803590602001909291905050506114cd565b6040518080602001828103825283818151815260200191508051906020019080838360005b838110156105e65780820151818401526020810190506105cb565b50505050905090810190601f1680156106135780820380516001836020036101000a031916815260200191505b509250505060405180910390f35b60603373ffffffffffffffffffffffffffffffffffffffff166005600084815260200190815260200160002060009054906101000a900473ffffffffffffffffffffffffffffffffffffffff1673ffffffffffffffffffffffffffffffffffffffff16146106da576040517f08c379a000000000000000000000000000000000000000000000000000000000815260040180806020018281038252602c815260200180611706602c913960400191505060405180910390fd5b426006600084815260200190815260200160002060003373ffffffffffffffffffffffffffffffffffffffff1673ffffffffffffffffffffffffffffffffffffffff168152602001908152602001600020541161079f576040517f08c379a000000000000000000000000000000000000000000000000000000000815260040180806020018281038252600f8152602001807f596f75722074696d65206973205570000000000000000000000000000000000081525060200191505060405180910390fd5b6107a8826114cd565b9050919050565b600982815481106107bc57fe5b9060005260206000200181815481106107d157fe5b90600052602060002001600091509150505481565b6000816007600085815260200190815260200160002060003373ffffffffffffffffffffffffffffffffffffffff1673ffffffffffffffffffffffffffffffffffffffff16815260200190815260200160002060006101000a81548173ffffffffffffffffffffffffffffffffffffffff021916908373ffffffffffffffffffffffffffffffffffffffff16021790555081905092915050565b60608060008084815260200190815260200160002060040160029054906101000a900460ff1660ff166040519080825280602002602001820160405280156108d75781602001602082028038833980820191505090505b50905060008090505b60008085815260200190815260200160002060040160029054906101000a900460ff1660ff168110156109a85760016000858152602001908152602001600020600060018301815260200190815260200160002060009054906101000a900473ffffffffffffffffffffffffffffffffffffffff1682828151811061096157fe5b602002602001019073ffffffffffffffffffffffffffffffffffffffff16908173ffffffffffffffffffffffffffffffffffffffff168152505080806001019150506108e0565b5080915050919050565b600080600083815260200190815260200160002060020160009054906101000a900473ffffffffffffffffffffffffffffffffffffffff1673ffffffffffffffffffffffffffffffffffffffff163373ffffffffffffffffffffffffffffffffffffffff1614610a8a576040517f08c379a00000000000000000000000000000000000000000000000000000000081526004018080602001828103825260208152602001807f4f6e6c79204f776e65722063616e2072756e20746869732066756e6374696f6e81525060200191505060405180910390fd5b836000808481526020019081526020016000206001019080519060200190610ab3929190611584565b508260008084815260200190815260200160002060020160006101000a81548173ffffffffffffffffffffffffffffffffffffffff021916908373ffffffffffffffffffffffffffffffffffffffff160217905550600080838152602001908152602001600020600401600281819054906101000a900460ff168092919060010191906101000a81548160ff021916908360ff160217905550508260016000848152602001908152602001600020600080600086815260200190815260200160002060040160029054906101000a900460ff1660ff16815260200190815260200160002060006101000a81548173ffffffffffffffffffffffffffffffffffffffff021916908373ffffffffffffffffffffffffffffffffffffffff16021790555060026040518060c001604052808481526020018681526020018573ffffffffffffffffffffffffffffffffffffffff1681526020016000808681526020019081526020016000206003018054600181600116156101000203166002900480601f016020809104026020016040519081016040528092919081815260200182805460018160011615610100020316600290048015610cb35780601f10610c8857610100808354040283529160200191610cb3565b820191906000526020600020905b815481529060010190602001808311610c9657829003601f168201915b5050505050815260200160008086815260200190815260200160002060040160009054906101000a900461ffff1661ffff16815260200160008086815260200190815260200160002060040160029054906101000a900460ff1660ff1681525090806001815401808255809150509060018203906000526020600020906005020160009091929091909150600082015181600001556020820151816001019080519060200190610d64929190611604565b5060408201518160020160006101000a81548173ffffffffffffffffffffffffffffffffffffffff021916908373ffffffffffffffffffffffffffffffffffffffff1602179055506060820151816003019080519060200190610dc8929190611604565b5060808201518160040160006101000a81548161ffff021916908361ffff16021790555060a08201518160040160026101000a81548160ff021916908360ff160217905550505050600260035481548110610e1f57fe5b9060005260206000209060050201600401600281819054906101000a900460ff168092919060010191906101000a81548160ff021916908360ff1602179055505082600260035481548110610e7057fe5b906000526020600020906005020160020160006101000a81548173ffffffffffffffffffffffffffffffffffffffff021916908373ffffffffffffffffffffffffffffffffffffffff160217905550600190509392505050565b60006040518060c0016040528060035481526020018681526020018573ffffffffffffffffffffffffffffffffffffffff1681526020018481526020018361ffff168152602001600460009054906101000a900460ff1660ff168152506000806003548152602001908152602001600020600082015181600001556020820151816001019080519060200190610f61929190611604565b5060408201518160020160006101000a81548173ffffffffffffffffffffffffffffffffffffffff021916908373ffffffffffffffffffffffffffffffffffffffff1602179055506060820151816003019080519060200190610fc5929190611604565b5060808201518160040160006101000a81548161ffff021916908361ffff16021790555060a08201518160040160026101000a81548160ff021916908360ff160217905550905050836001600060035481526020019081526020016000206000600460009054906101000a900460ff1660ff16815260200190815260200160002060006101000a81548173ffffffffffffffffffffffffffffffffffffffff021916908373ffffffffffffffffffffffffffffffffffffffff16021790555060026040518060c0016040528060035481526020018781526020018673ffffffffffffffffffffffffffffffffffffffff1681526020018581526020018461ffff168152602001600160ff1681525090806001815401808255809150509060018203906000526020600020906005020160009091929091909150600082015181600001556020820151816001019080519060200190611124929190611604565b5060408201518160020160006101000a81548173ffffffffffffffffffffffffffffffffffffffff021916908373ffffffffffffffffffffffffffffffffffffffff1602179055506060820151816003019080519060200190611188929190611604565b5060808201518160040160006101000a81548161ffff021916908361ffff16021790555060a08201518160040160026101000a81548160ff021916908360ff16021790555050505060016002600354815481106111e157fe5b906000526020600020906005020160040160026101000a81548160ff021916908360ff1602179055508360026003548154811061121a57fe5b906000526020600020906005020160020160006101000a81548173ffffffffffffffffffffffffffffffffffffffff021916908373ffffffffffffffffffffffffffffffffffffffff1602179055506003600081548092919060010191905055506001600354039050949350505050565b3373ffffffffffffffffffffffffffffffffffffffff1660008085815260200190815260200160002060020160009054906101000a900473ffffffffffffffffffffffffffffffffffffffff1673ffffffffffffffffffffffffffffffffffffffff1614806113ca57503373ffffffffffffffffffffffffffffffffffffffff1660076000858152602001908152602001600020600080600087815260200190815260200160002060020160009054906101000a900473ffffffffffffffffffffffffffffffffffffffff1673ffffffffffffffffffffffffffffffffffffffff1673ffffffffffffffffffffffffffffffffffffffff16815260200190815260200160002060009054906101000a900473ffffffffffffffffffffffffffffffffffffffff1673ffffffffffffffffffffffffffffffffffffffff16145b61141f576040517f08c379a000000000000000000000000000000000000000000000000000000000815260040180806020018281038252605c8152602001806116aa605c913960600191505060405180910390fd5b816005600085815260200190815260200160002060006101000a81548173ffffffffffffffffffffffffffffffffffffffff021916908373ffffffffffffffffffffffffffffffffffffffff1602179055508042016006600085815260200190815260200160002060008473ffffffffffffffffffffffffffffffffffffffff1673ffffffffffffffffffffffffffffffffffffffff16815260200190815260200160002081905550505050565b60606000808381526020019081526020016000206001018054600181600116156101000203166002900480601f0160208091040260200160405190810160405280929190818152602001828054600181600116156101000203166002900480156115785780601f1061154d57610100808354040283529160200191611578565b820191906000526020600020905b81548152906001019060200180831161155b57829003601f168201915b50505050509050919050565b828054600181600116156101000203166002900490600052602060002090601f016020900481019282601f106115c557805160ff19168380011785556115f3565b828001600101855582156115f3579182015b828111156115f25782518255916020019190600101906115d7565b5b5090506116009190611684565b5090565b828054600181600116156101000203166002900490600052602060002090601f016020900481019282601f1061164557805160ff1916838001178555611673565b82800160010185558215611673579182015b82811115611672578251825591602001919060010190611657565b5b5090506116809190611684565b5090565b6116a691905b808211156116a257600081600090555060010161168a565b5090565b9056fe20596f7520617265206e6f74206f776e65722f64656c656761746564206f776e6572206f66207468697320617373657420746875732063616e6e6f74206769766520766965772061636365737320746f207468697264207061727479596f7520646f206e6f7420686176652041636365737320746f20766965772041737365742044657461696c73a265627a7a723158204d9b8eaa9ec2254027723ac2d9e98fc37f905ebaad9253831f377cae15fd499564736f6c63430005100032",
  "source": "// \"SPDX-License-Identifier: UNLICENSED\"\r\n\r\npragma solidity 0.5.16;\r\n\r\n/**\r\n * @title Asset\r\n * @dev Asset storage & transfer\r\n \r\n Ashish Kumar, [09.09.20 23:10]\r\nCreate a blockchain contract for storing and sharing data and other parameter of an asset.\r\n\r\nMain features as follows :\r\n1. Data stored & shared should be immutable.\r\n2. Asset ownership should be transferable.\r\n3. Trail of ownership should be visible.\r\n4. Asset data should be visible for a limited period to third party on demand.\r\n5. Owner of asset can delegate ownership to a 'temporary owner'\r\n*/\r\ncontract Asset {\r\n\r\n  struct AssetDetail {\r\n    uint256 assetNo;  \r\n    string ownerName;\r\n    address ownerAddr;\r\n    string otherDetails;\r\n    uint16 yearOfManufacture;\r\n    uint8 ownerNo;  // increases by 1 everytime asset is transfered to a new owner. \r\n  }\r\n  \r\n  mapping(uint => AssetDetail) assets;  // mapping asset no to asset details.\r\n  //uint256[] assetnos;   // array of asset nos.\r\n  mapping(uint256 => mapping(uint256 => address)) owneraddr; // mapping asset no to owner no to owner address\r\n  AssetDetail[] listofOwners;     // aray of asset details.\r\n  //listofOwners[assetNo].ownerNo => No of owners that this asset has had\r\n  \r\n  uint256 assetNo = 0;\r\n  uint8 ownerNo = 1;    // Initialized with 1 to sound similar to 'first owner'\r\n  \r\n  function createAsset(string memory _name,\r\n                        address _addr,\r\n                        string memory _otherDetails,\r\n                        uint16 _yearOfManufacture) \r\n                        public returns(uint256){\r\n    \r\n    assets[assetNo] = AssetDetail(assetNo, _name, _addr, _otherDetails, _yearOfManufacture, ownerNo);\r\n    owneraddr[assetNo][ownerNo] = _addr;\r\n    listofOwners.push(AssetDetail({\r\n        assetNo : assetNo,\r\n        ownerName : _name,\r\n        ownerAddr : _addr,\r\n        otherDetails : _otherDetails,\r\n        yearOfManufacture : _yearOfManufacture,\r\n        ownerNo : 1\r\n    }));\r\n    \r\n    listofOwners[assetNo].ownerNo = 1;\r\n    listofOwners[assetNo].ownerAddr = _addr;    \r\n    //trail[assetNo][_addr] = now;\r\n    \r\n    //owners[ownerNo][assetNo] ;\r\n    assetNo ++;\r\n    \r\n    return (assetNo-1);\r\n    \r\n  }\r\n  function transferAsset(string memory _newname,\r\n                        address _newaddr,\r\n                        uint256 _assetNo) public returns(bool success){\r\n    require(msg.sender == assets[_assetNo].ownerAddr, \"Only Owner can run this function\");\r\n    \r\n    assets[_assetNo].ownerName = _newname;\r\n    assets[_assetNo].ownerAddr = _newaddr;                     \r\n    assets[_assetNo].ownerNo++;                     \r\n    owneraddr[_assetNo][assets[_assetNo].ownerNo] = _newaddr;\r\n    listofOwners.push(AssetDetail({\r\n        assetNo : _assetNo,\r\n        ownerName : _newname,\r\n        ownerAddr : _newaddr,\r\n        otherDetails : assets[_assetNo].otherDetails,\r\n            yearOfManufacture : assets[_assetNo].yearOfManufacture,\r\n        ownerNo : assets[_assetNo].ownerNo\r\n    }));\r\n    listofOwners[assetNo].ownerNo ++;\r\n    listofOwners[assetNo].ownerAddr = _newaddr;    \r\n   \r\n    //trail[_assetNo][_newaddr] = now;\r\n    //owners[assets[_assetNo].ownerNo][_assetNo];\r\n    \r\n    return true;\r\n  }\r\n  \r\n  function viewTrail(uint256 _assetNo) public view returns(address[] memory){\r\n       address[] memory newlist = new address[](assets[_assetNo].ownerNo);\r\n      for(uint i = 0; i < assets[_assetNo].ownerNo; i ++)\r\n      {\r\n      newlist[i] = owneraddr[_assetNo][i+1];\r\n      //listofOwners.push(owneraddr[_assetNo][ownerNo]);\r\n      }\r\n  \r\n    return (newlist);\r\n  }\r\n  \r\n  function getAssetOwnerName(uint256 _assetNo) public view returns(string memory){\r\n      \r\n      return assets[_assetNo].ownerName;\r\n  } \r\n  \r\n  mapping(uint256 => address) thirdparty;\r\n  mapping(uint256 => mapping(address => uint256)) timeallowed;\r\n  function giveViewAccess(uint256 _assetNo, address _to, uint256 _timeinseconds) public {\r\n      require(assets[_assetNo].ownerAddr == msg.sender || delegate[_assetNo][assets[_assetNo].ownerAddr] == msg.sender, \" You are not owner/delegated owner of this asset thus cannot give view access to third party\");\r\n      thirdparty[_assetNo] = _to;\r\n      timeallowed[_assetNo][_to] = (block.timestamp + _timeinseconds);\r\n  } \r\n  \r\n  function viewAssetDetail(uint256 _assetNo) public view returns(string memory){\r\n      require(thirdparty[_assetNo] == msg.sender, \"You do not have Access to view Asset Details\");\r\n      require(timeallowed[_assetNo][msg.sender] > block.timestamp, \"Your time is Up\" );\r\n       return getAssetOwnerName(_assetNo);\r\n      \r\n  }\r\n  \r\n  mapping (uint256 => mapping(address => address)) delegate;    // mapping Asset no to Owner address to delegate Owner address\r\n  function delegateOwner(uint256 _assetNo, address _to) public returns(address){\r\n      delegate[_assetNo][msg.sender] = _to;\r\n      \r\n      return _to;\r\n      \r\n  }\r\n  \r\n  \r\n  mapping(uint256 => mapping(address => uint256)) trail; // mapping Asset No to Owner to DateofTransfer\r\n  uint256[][] public owners;  // array of owner no to asset no.\r\n\r\n}",
  "sourcePath": "D:\\Vatzcar\\contracts\\Asset.sol",
  "compiler": {
    "name": "solc",
    "version": "0.5.16+commit.9c3226ce.Emscripten.clang"
  },
  "schemaVersion": "3.1.0",
  "updatedAt": "2020-09-16T17:10:23.575Z",
  "networkType": "ethereum",
  "devdoc": {
    "details": "Asset storage & transfer Ashish Kumar, [09.09.20 23:10] Create a blockchain contract for storing and sharing data and other parameter of an asset. Main features as follows : 1. Data stored & shared should be immutable. 2. Asset ownership should be transferable. 3. Trail of ownership should be visible. 4. Asset data should be visible for a limited period to third party on demand. 5. Owner of asset can delegate ownership to a 'temporary owner'",
    "methods": {},
    "title": "Asset"
  },
  "userdoc": {
    "methods": {}
  }
}